{
  "contractName": "Lottery",
  "abi": [
    {
      "constant": true,
      "inputs": [],
      "name": "creator",
      "outputs": [
        {
          "name": "",
          "type": "address"
        }
      ],
      "payable": false,
      "stateMutability": "view",
      "type": "function"
    },
    {
      "constant": true,
      "inputs": [],
      "name": "winningNumbers",
      "outputs": [
        {
          "name": "",
          "type": "string"
        }
      ],
      "payable": false,
      "stateMutability": "view",
      "type": "function"
    },
    {
      "constant": true,
      "inputs": [],
      "name": "better",
      "outputs": [
        {
          "name": "",
          "type": "address"
        }
      ],
      "payable": false,
      "stateMutability": "view",
      "type": "function"
    },
    {
      "inputs": [],
      "payable": true,
      "stateMutability": "payable",
      "type": "constructor"
    },
    {
      "constant": false,
      "inputs": [
        {
          "name": "_betNumbers",
          "type": "string"
        }
      ],
      "name": "bet",
      "outputs": [],
      "payable": true,
      "stateMutability": "payable",
      "type": "function"
    },
    {
      "constant": false,
      "inputs": [],
      "name": "drawWinningNumbers",
      "outputs": [],
      "payable": false,
      "stateMutability": "nonpayable",
      "type": "function"
    },
    {
      "constant": false,
      "inputs": [],
      "name": "payout",
      "outputs": [],
      "payable": true,
      "stateMutability": "payable",
      "type": "function"
    },
    {
      "constant": true,
      "inputs": [],
      "name": "getWinningNumbers",
      "outputs": [
        {
          "name": "",
          "type": "string"
        }
      ],
      "payable": false,
      "stateMutability": "view",
      "type": "function"
    },
    {
      "constant": true,
      "inputs": [],
      "name": "getWinners",
      "outputs": [
        {
          "name": "",
          "type": "address[]"
        }
      ],
      "payable": false,
      "stateMutability": "view",
      "type": "function"
    },
    {
      "constant": true,
      "inputs": [],
      "name": "getState",
      "outputs": [
        {
          "name": "",
          "type": "string"
        }
      ],
      "payable": false,
      "stateMutability": "view",
      "type": "function"
    }
  ],
  "bytecode": "0x6080604052336000806101000a81548173ffffffffffffffffffffffffffffffffffffffff021916908373ffffffffffffffffffffffffffffffffffffffff1602179055506000600460006101000a81548160ff0219169083600181111561006357fe5b021790555061133a806100776000396000f300608060405260043610610099576000357c0100000000000000000000000000000000000000000000000000000000900463ffffffff16806302d05d3f1461009e5780631865c57d146100f557806321e0f22814610185578063608620aa1461021557806363bd1d4a1461022c578063718c7d4414610236578063740305311461028d57806384350e1d146102e9578063df15c37e14610379575b600080fd5b3480156100aa57600080fd5b506100b36103e5565b604051808273ffffffffffffffffffffffffffffffffffffffff1673ffffffffffffffffffffffffffffffffffffffff16815260200191505060405180910390f35b34801561010157600080fd5b5061010a61040a565b6040518080602001828103825283818151815260200191508051906020019080838360005b8381101561014a57808201518184015260208101905061012f565b50505050905090810190601f1680156101775780820380516001836020036101000a031916815260200191505b509250505060405180910390f35b34801561019157600080fd5b5061019a6104b3565b6040518080602001828103825283818151815260200191508051906020019080838360005b838110156101da5780820151818401526020810190506101bf565b50505050905090810190601f1680156102075780820380516001836020036101000a031916815260200191505b509250505060405180910390f35b34801561022157600080fd5b5061022a610551565b005b610234610778565b005b34801561024257600080fd5b5061024b610a39565b604051808273ffffffffffffffffffffffffffffffffffffffff1673ffffffffffffffffffffffffffffffffffffffff16815260200191505060405180910390f35b6102e7600480360381019080803590602001908201803590602001908080601f0160208091040260200160405190810160405280939291908181526020018383808284378201915050505050509192919290505050610a5f565b005b3480156102f557600080fd5b506102fe610cc1565b6040518080602001828103825283818151815260200191508051906020019080838360005b8381101561033e578082015181840152602081019050610323565b50505050905090810190601f16801561036b5780820380516001836020036101000a031916815260200191505b509250505060405180910390f35b34801561038557600080fd5b5061038e610d63565b6040518080602001828103825283818151815260200191508051906020019060200280838360005b838110156103d15780820151818401526020810190506103b6565b505050509050019250505060405180910390f35b6000809054906101000a900473ffffffffffffffffffffffffffffffffffffffff1681565b60606000600181111561041957fe5b600460009054906101000a900460ff16600181111561043457fe5b1415610477576040805190810160405280600781526020017f4f6e676f696e670000000000000000000000000000000000000000000000000081525090506104b0565b6040805190810160405280600881526020017f46696e697368656400000000000000000000000000000000000000000000000081525090505b90565b60028054600181600116156101000203166002900480601f0160208091040260200160405190810160405280929190818152602001828054600181600116156101000203166002900480156105495780601f1061051e57610100808354040283529160200191610549565b820191906000526020600020905b81548152906001019060200180831161052c57829003601f168201915b505050505081565b6000809054906101000a900473ffffffffffffffffffffffffffffffffffffffff1673ffffffffffffffffffffffffffffffffffffffff163373ffffffffffffffffffffffffffffffffffffffff1614151561063b576040517f08c379a000000000000000000000000000000000000000000000000000000000815260040180806020018281038252602a8152602001807f44726177696e67206e756d62657273206f6e6c7920616c6c6f77656420666f7281526020017f20746865206f776e65720000000000000000000000000000000000000000000081525060400191505060405180910390fd5b6000600181111561064857fe5b600460009054906101000a900460ff16600181111561066357fe5b1415156106fe576040517f08c379a00000000000000000000000000000000000000000000000000000000081526004018080602001828103825260318152602001807f44726177696e67206e756d62657273206f6e6c7920616c6c6f77656420696e2081526020017f746865204f6e676f696e6720737461746500000000000000000000000000000081525060400191505060405180910390fd5b6040805190810160405280600d81526020017f312c31312c31392c32342c343300000000000000000000000000000000000000815250600290805190602001906107499291906110ff565b506001600460006101000a81548160ff0219169083600181111561076957fe5b0217905550610776610df1565b565b6000806000809054906101000a900473ffffffffffffffffffffffffffffffffffffffff1673ffffffffffffffffffffffffffffffffffffffff163373ffffffffffffffffffffffffffffffffffffffff16141515610865576040517f08c379a00000000000000000000000000000000000000000000000000000000081526004018080602001828103825260268152602001807f5061796f75742063616c6c206f6e6c7920616c6c6f77656420666f722074686581526020017f206f776e6572000000000000000000000000000000000000000000000000000081525060400191505060405180910390fd5b60018081111561087157fe5b600460009054906101000a900460ff16600181111561088c57fe5b141515610927576040517f08c379a000000000000000000000000000000000000000000000000000000000815260040180806020018281038252602e8152602001807f5061796f75742063616c6c206f6e6c7920616c6c6f77656420696e207468652081526020017f46696e697368656420737461746500000000000000000000000000000000000081525060400191505060405180910390fd5b600060068054905011156109df5761093d610fe8565b9150600090505b6006805490508110156109de5760068181548110151561096057fe5b9060005260206000200160009054906101000a900473ffffffffffffffffffffffffffffffffffffffff1673ffffffffffffffffffffffffffffffffffffffff166108fc839081150290604051600060405180830381858888f193505050501580156109d0573d6000803e3d6000fd5b508080600101915050610944565b5b600660006109ed919061117f565b600560006109fb91906111a0565b60026000610a0991906111c4565b60006003819055506000600460006101000a81548160ff02191690836001811115610a3057fe5b02179055505050565b600160009054906101000a900473ffffffffffffffffffffffffffffffffffffffff1681565b600067016345785d8a00003414801515610a7857600080fd5b60006001811115610a8557fe5b600460009054906101000a900460ff166001811115610aa057fe5b14801515610aad57600080fd5b60006001811115610aba57fe5b600460009054906101000a900460ff166001811115610ad557fe5b141515610b70576040517f08c379a000000000000000000000000000000000000000000000000000000000815260040180806020018281038252602a8152602001807f42657474696e67206f6e6c7920616c6c6f77656420696e207468652046696e6981526020017f736865642073746174650000000000000000000000000000000000000000000081525060400191505060405180910390fd5b338360000160006101000a81548173ffffffffffffffffffffffffffffffffffffffff021916908373ffffffffffffffffffffffffffffffffffffffff16021790555083836001019080519060200190610bcb9291906110ff565b50600583908060018154018082558091505090600182039060005260206000209060020201600090919290919091506000820160009054906101000a900473ffffffffffffffffffffffffffffffffffffffff168160000160006101000a81548173ffffffffffffffffffffffffffffffffffffffff021916908373ffffffffffffffffffffffffffffffffffffffff16021790555060018201816001019080546001816001161561010002031660029004610c8892919061120c565b5050505034600354016003819055506000600460006101000a81548160ff02191690836001811115610cb657fe5b021790555050505050565b606060028054600181600116156101000203166002900480601f016020809104026020016040519081016040528092919081815260200182805460018160011615610100020316600290048015610d595780601f10610d2e57610100808354040283529160200191610d59565b820191906000526020600020905b815481529060010190602001808311610d3c57829003601f168201915b5050505050905090565b60606006805480602002602001604051908101604052809291908181526020018280548015610de757602002820191906000526020600020905b8160009054906101000a900473ffffffffffffffffffffffffffffffffffffffff1673ffffffffffffffffffffffffffffffffffffffff1681526020019060010190808311610d9d575b5050505050905090565b60008090505b600580549050811015610fe557610f2c600582815481101515610e1657fe5b90600052602060002090600202016040805190810160405290816000820160009054906101000a900473ffffffffffffffffffffffffffffffffffffffff1673ffffffffffffffffffffffffffffffffffffffff1673ffffffffffffffffffffffffffffffffffffffff168152602001600182018054600181600116156101000203166002900480601f016020809104026020016040519081016040528092919081815260200182805460018160011615610100020316600290048015610f1e5780601f10610ef357610100808354040283529160200191610f1e565b820191906000526020600020905b815481529060010190602001808311610f0157829003601f168201915b505050505081525050611016565b15610fd8576006600582815481101515610f4257fe5b906000526020600020906002020160000160009054906101000a900473ffffffffffffffffffffffffffffffffffffffff1690806001815401808255809150509060018203906000526020600020016000909192909190916101000a81548173ffffffffffffffffffffffffffffffffffffffff021916908373ffffffffffffffffffffffffffffffffffffffff160217905550505b8080600101915050610df7565b50565b600080600a600960035402811515610ffc57fe5b0490506006805490508181151561100f57fe5b0491505090565b60006060826020015190506002604051808280546001816001161561010002031660029004801561107e5780601f1061105c57610100808354040283529182019161107e565b820191906000526020600020905b81548152906001019060200180831161106a575b5050915050604051809103902060001916816040518082805190602001908083835b6020831015156110c557805182526020820191506020810190506020830392506110a0565b6001836020036101000a03801982511681845116808217855250505050505090500191505060405180910390206000191614915050919050565b828054600181600116156101000203166002900490600052602060002090601f016020900481019282601f1061114057805160ff191683800117855561116e565b8280016001018555821561116e579182015b8281111561116d578251825591602001919060010190611152565b5b50905061117b9190611293565b5090565b508054600082559060005260206000209081019061119d9190611293565b50565b50805460008255600202906000526020600020908101906111c191906112b8565b50565b50805460018160011615610100020316600290046000825580601f106111ea5750611209565b601f0160209004906000526020600020908101906112089190611293565b5b50565b828054600181600116156101000203166002900490600052602060002090601f016020900481019282601f106112455780548555611282565b8280016001018555821561128257600052602060002091601f016020900482015b82811115611281578254825591600101919060010190611266565b5b50905061128f9190611293565b5090565b6112b591905b808211156112b1576000816000905550600101611299565b5090565b90565b61130b91905b8082111561130757600080820160006101000a81549073ffffffffffffffffffffffffffffffffffffffff02191690556001820160006112fe91906111c4565b506002016112be565b5090565b905600a165627a7a723058207a8318c48e7be42d0140b361ccc52cf95e19dce38331e3c630928b435d6d47020029",
  "source": "pragma solidity ^0.4.24;\n\ncontract Lottery {\n    address public creator;\n    address public better;\n    string public winningNumbers;\n    uint256 bank;\n\n    struct Better {\n        address betterAddress;\n        string bettedNumbers;\n    }\n\n    enum State { Ongoing, Finished }\n    State state;\n\n    Better[] betters;\n    address[] winners;\n\n    function Lottery()\n        public\n        payable\n    {\n        creator = msg.sender;\n        state = State.Ongoing;\n    }\n\n    modifier condition(bool _condition)\n    {\n        require(_condition);\n        _;\n    }\n\n    modifier isInState(State _state)\n    {\n        require(state == _state);\n        _;\n    }\n\n    function bet(string _betNumbers)\n        public\n        condition(msg.value == (0.1 ether))\n        condition(state == State.Ongoing)\n        payable\n    {\n        if (state != State.Ongoing) {\n            revert(\"Betting only allowed in the Finished state\");\n        }\n        Better storage _currentBetter;\n        _currentBetter.betterAddress = msg.sender;\n        _currentBetter.bettedNumbers = _betNumbers;\n        betters.push(_currentBetter);\n        bank = bank + msg.value;\n        state = State.Ongoing;\n    }\n\n    function drawWinningNumbers()\n        public\n    {\n        if (msg.sender != creator) {\n            revert(\"Drawing numbers only allowed for the owner\");\n        }\n        if (state != State.Ongoing) {\n            revert(\"Drawing numbers only allowed in the Ongoing state\");\n        }\n        winningNumbers = \"1,11,19,24,43\"; // numbers need to be sorted\n        state = State.Finished;\n        collectWinners();\n    }\n\n    function collectWinners()\n        internal\n    {\n        for (uint i=0; i<betters.length; i++)\n        {\n            if (isWinner(betters[uint(i)]))\n            {\n                winners.push(betters[uint(i)].betterAddress);\n            }\n        }\n    }\n\n    function isWinner(Better better)\n        internal\n        returns (bool)\n    {\n        string memory bettedNumbers = better.bettedNumbers;\n        return keccak256(bettedNumbers) == keccak256(winningNumbers);\n    }\n\n    function payout()\n        public\n        payable\n    {\n        if(msg.sender != creator) {\n            revert(\"Payout call only allowed for the owner\");\n        }\n        if (state != State.Finished) {\n            revert(\"Payout call only allowed in the Finished state\");\n        }\n        if (winners.length > 0) {\n            uint256 prize = calculatePrize();\n            for (uint i=0; i<winners.length; i++)\n            {\n                winners[uint(i)].transfer(prize);\n            }\n        }\n        delete winners;\n        delete betters;\n        delete winningNumbers;\n        bank = uint256(0);\n        state = State.Ongoing;\n    }\n\n    function calculatePrize()\n        internal\n        returns(uint256)\n    {\n        uint256 prizePool = bank * uint256(9) / uint256(10);\n        return prizePool / uint256(winners.length);\n    }\n\n    function getWinningNumbers()\n        public\n        view\n        returns(string memory)\n    {\n        return winningNumbers;\n    }\n\n    function getWinners()\n        public\n        view\n        returns(address[] memory)\n    {\n        return winners;\n    }\n\n    function getState()\n        public\n        view\n        returns(string memory)\n    {\n        if (state == State.Ongoing) {\n            return \"Ongoing\";\n        } else {\n            return \"Finished\";\n        }\n    }\n\n}",
  "sourcePath": "/home/michal/Projects/lottery-smart-contract/LotteryContract/contracts/Lottery.sol",
  "compiler": {
    "name": "solc",
    "version": "0.4.25+commit.59dbf8f1.Emscripten.clang"
  },
  "schemaVersion": "3.0.13",
  "updatedAt": "2019-09-07T22:49:15.485Z",
  "devdoc": {
    "methods": {}
  },
  "userdoc": {
    "methods": {}
  }
}